:020000040800F2
:1000000000500020F1000008390100083901000803
:10001000390100083901000839010008000000001A
:10002000000000000000000000000000390100088E
:1000300039010008000000003901000839010008FA
:1000400039010008390100083901000839010008A8
:100050003901000839010008390100083901000898
:100060003901000839010008390100083901000888
:100070003901000839010008390100083901000878
:100080003901000839010008390100083901000868
:100090003901000839010008390100083901000858
:1000A0003901000839010008390100083901000848
:1000B0003901000839010008390100083901000838
:1000C0003901000839010008390100083901000828
:1000D0003901000839010008390100083901000818
:1000E0003901000839010008390100085FF808F1FA
:1000F000002100F004B80B4B5B58435004310A4810
:100100000A4B42189A42FFF4F6AF094A00F003B8CE
:10011000002342F8043B074B9A42FFF4F9AF00F08A
:100120000DF8704760070008000000200000002064
:10013000000000201C000020FFF7FEBF404BF7B579
:1001400000241C603F4B1C6000F0A4F900F0C6F9CD
:1001500000F050FA00F0F2F900F040F902460028F1
:1001600054D100F05BFA00F0EFFA374B374C9E7930
:100170005A79360446EA02661A7A1F461643DA7935
:1001800046EA022606F1006202F58052944205D248
:10019000204600F093FA04F58064F3E70024A6F506
:1001A00080539C421DD204F5805027490422103010
:1001B00000F0B8F804F1006000F58050396800F0F4
:1001C00097FA054658B900F0B9FA21480D212A4698
:1001D0004FF44013009500F034F900F065FA043450
:1001E000DDE700F0ABFA00F08BF804460028FAD106
:1001F000012000F0E3F84FF4805000F0C5F80094BF
:1002000013480D210A224FF4A02304E01048009463
:100210000D214FF4401300F014F90C4800F00CFAD3
:1002200018B10A4800F030FAFEE700900D210848A6
:1002300005224FF4401300F004F900F035FAF3E71B
:1002400000000020080000200C0000200010000822
:1002500000100140064BDA68D8609A689107FCD517
:100260009A681206FCD4024BD868C0B2704700BF2F
:1002700000300140F8B5104C4FF48013236105465F
:100280009F20FFF7E7FF0020FFF7E4FF074600206D
:10029000FFF7E0FF06460020FFF7DCFF1023202FCA
:1002A000236107D13602B6B2304380B2431B5842B5
:1002B0005841F8BD0020F8BD0008014037B50F4C8B
:1002C0004FF4801323610546AB20FFF7C3FF1023D3
:1002D00023610023ADF80630BDF806309BB21D2B1C
:1002E00004D8BDF8063001339BB2F3E72846FFF788
:1002F000C1FF003018BF012003B030BD000801402D
:1003000010B5074C4FF4801323610520FFF7A2FFBF
:10031000FF20FFF79FFF1023236100F0010010BDB5
:10032000000801402DE9F041054688461646FFF7D2
:10033000E7FF044618BB134F4FF480133B610B20BB
:10034000FFF788FFC5F30740FFF784FFC5F30720D9
:10035000FFF780FFE8B2FFF77DFF2046FFF77AFF47
:10036000A3B2B34206D20020FFF774FF08F80400DE
:100370000134F5E710233B613046BDE8F0810020F1
:10038000BDE8F0810008014038B50B4D4FF48013F3
:100390002B610446D820FFF75DFFC4F30740FFF749
:1003A00059FFC4F30720FFF755FFE0B2FFF752FFF4
:1003B00010232B6138BD00BF0008014010B5064C6A
:1003C0004FF48013002823610CBF04200620FFF7A0
:1003D00041FF1023236110BD0008014010B542F217
:1003E0001300FFF76BFFD8B10F4C4FF4805021463C
:1003F0001022FFF797FF2378462B13D163784C2BFD
:1004000010D1A378582B0DD1E378492B0AD1237949
:100410003A2B07D1637A3A2B0CBF0020022010BD83
:10042000012010BD022010BD0C000020012303FAA2
:1004300001F1D2F1010238BF00221301994001619C
:1004400070472DE9F0479DF820A01446CAF1010736
:10045000FFB23A46804689461E46FFF7E7FFB4B131
:10046000354615B100BF013DFBE7404649465246BF
:10047000FFF7DCFF354615B100BF013DFBE7404605
:1004800049463A46013CFFF7D1FFE4B2E7E7BDE851
:10049000F08700000D4B0E491A6842F001021A6005
:1004A0000C4A106801401160196821F0847121F430
:1004B00080311960196821F480211960136823F4D0
:1004C000FE031360044B00221A60704700100240C4
:1004D0000000FFF80410024008100240154B1A6893
:1004E00042F001121A601A6812489203FBD5124AB0
:1004F00012211160A2F6FC72116841F4E81141F476
:1005000080611160016841F080710160196811F02B
:10051000407FFBD0116841F00201116011680907AA
:10052000FCD59A6942F4FE729A61DA6942F40002DB
:10053000DA61704700100240002002402A4A9369A5
:1005400043F001039361936943F004039361274BE4
:10055000196841F440311960196821F4402119608B
:1005600010211961196841F440111960196821F4CA
:1005700040011960196841F400011960196821F0FF
:1005800040711960196821F040611960196841F0E3
:100590000061196040211961196841F040511960EA
:1005A000196821F040411960196841F00041196053
:1005B000936943F4805393610D4B00221A605A6093
:1005C0001A6842F004021A601A681A601A6842F443
:1005D00080721A601A6842F400721A601A6842F057
:1005E00040021A60704700BF00100240000801403E
:1005F00000300140074B084A1A604FF480221A610C
:10060000D3F8042422F4700242F48012C3F80424C4
:10061000704700BF000C014000040140054B1A6800
:10062000D10703D41A6842F001021A601A689207CF
:10063000FCD5704700100240036803481840B0F131
:1006400000535842584170470000FE2F044A08B535
:1006500043681060026882F30888984708BD00BFAD
:1006600008ED00E0074B4FF0FF32C3F88020C3F8DD
:100670008420C3F88021C3F88421042243F8F02C9D
:10068000704700BF00E100E010B5064B8022044631
:100690001A60FFF7E7FFFFF7FDFE2046BDE81040B8
:1006A000FFF7D4BF10200240024A034BDA6000BFBC
:1006B000FDE700BF0400FA0500ED00E00A4B10B5AD
:1006C0001A6802221A60094A1168144611F0010FD3
:1006D000F9D1906042221A60226812F00101FBD128
:1006E0001960012010BD00BF102002400C20024004
:1006F00037B58BB200930B0C01930E4B01221C6893
:100700001A600D4A1568ED07FBD4019DADB2458016
:100710001568ED07FCD4009DADB205801568ED07A6
:10072000FCD424F001021A600068431A5842584170
:1007300003B030BD102002400C200240014B80224B
:100740001A60704710200240034B044A1A6002F1FD
:1007500088321A60704700BF0420024023016745B9
:04000005080000F0FF
:00000001FF
